{
  "contractName": "Election",
  "abi": [
    {
      "constant": true,
      "inputs": [],
      "name": "candidatesCount",
      "outputs": [
        {
          "name": "",
          "type": "uint256"
        }
      ],
      "payable": false,
      "stateMutability": "view",
      "type": "function"
    },
    {
      "constant": true,
      "inputs": [
        {
          "name": "",
          "type": "uint256"
        }
      ],
      "name": "candidates",
      "outputs": [
        {
          "name": "id",
          "type": "uint256"
        },
        {
          "name": "name",
          "type": "string"
        },
        {
          "name": "voteCount",
          "type": "uint256"
        }
      ],
      "payable": false,
      "stateMutability": "view",
      "type": "function"
    },
    {
      "constant": true,
      "inputs": [
        {
          "name": "",
          "type": "uint256"
        }
      ],
      "name": "voters",
      "outputs": [
        {
          "name": "voted",
          "type": "bool"
        },
        {
          "name": "voterId",
          "type": "address"
        }
      ],
      "payable": false,
      "stateMutability": "view",
      "type": "function"
    },
    {
      "inputs": [],
      "payable": false,
      "stateMutability": "nonpayable",
      "type": "constructor"
    },
    {
      "anonymous": false,
      "inputs": [
        {
          "indexed": true,
          "name": "_candidateId",
          "type": "uint256"
        }
      ],
      "name": "votedEvent",
      "type": "event"
    },
    {
      "constant": false,
      "inputs": [
        {
          "name": "_candidateId",
          "type": "uint256"
        },
        {
          "name": "_aadhar",
          "type": "uint256"
        }
      ],
      "name": "vote",
      "outputs": [],
      "payable": false,
      "stateMutability": "nonpayable",
      "type": "function"
    }
  ],
  "bytecode": "0x608060405234801561001057600080fd5b5061005e6040805190810160405280600b81526020017f43616e64696461746520310000000000000000000000000000000000000000008152506100fd640100000000026401000000009004565b6100ab6040805190810160405280600b81526020017f43616e64696461746520320000000000000000000000000000000000000000008152506100fd640100000000026401000000009004565b6100f86040805190810160405280600b81526020017f43616e64696461746520330000000000000000000000000000000000000000008152506100fd640100000000026401000000009004565b61021e565b600260008154809291906001019190505550606060405190810160405280600254815260200182815260200160008152506000806002548152602001908152602001600020600082015181600001556020820151816001019080519060200190610168929190610179565b506040820151816002015590505050565b828054600181600116156101000203166002900490600052602060002090601f016020900481019282601f106101ba57805160ff19168380011785556101e8565b828001600101855582156101e8579182015b828111156101e75782518255916020019190600101906101cc565b5b5090506101f591906101f9565b5090565b61021b91905b808211156102175760008160009055506001016101ff565b5090565b90565b6105328061022d6000396000f300608060405260043610610062576000357c0100000000000000000000000000000000000000000000000000000000900463ffffffff1680632d35a8a2146100675780633477ee2e14610092578063b384abef14610146578063da58c7d91461017d575b600080fd5b34801561007357600080fd5b5061007c6101f5565b6040518082815260200191505060405180910390f35b34801561009e57600080fd5b506100bd600480360381019080803590602001909291905050506101fb565b6040518084815260200180602001838152602001828103825284818151815260200191508051906020019080838360005b838110156101095780820151818401526020810190506100ee565b50505050905090810190601f1680156101365780820380516001836020036101000a031916815260200191505b5094505050505060405180910390f35b34801561015257600080fd5b5061017b60048036038101908080359060200190929190803590602001909291905050506102bd565b005b34801561018957600080fd5b506101a8600480360381019080803590602001909291905050506104b5565b60405180831515151581526020018273ffffffffffffffffffffffffffffffffffffffff1673ffffffffffffffffffffffffffffffffffffffff1681526020019250505060405180910390f35b60025481565b6000602052806000526040600020600091509050806000015490806001018054600181600116156101000203166002900480601f0160208091040260200160405190810160405280929190818152602001828054600181600116156101000203166002900480156102ad5780601f10610282576101008083540402835291602001916102ad565b820191906000526020600020905b81548152906001019060200180831161029057829003601f168201915b5050505050908060020154905083565b6001600082815260200190815260200160002060000160009054906101000a900460ff16151515610356576040517f08c379a000000000000000000000000000000000000000000000000000000000815260040180806020018281038252600d8152602001807f416c726561647920566f7465640000000000000000000000000000000000000081525060200191505060405180910390fd5b60008211801561036857506002548211155b15156103dc576040517f08c379a00000000000000000000000000000000000000000000000000000000081526004018080602001828103825260118152602001807f496e76616c69642043616e64696461746500000000000000000000000000000081525060200191505060405180910390fd5b600180600083815260200190815260200160002060000160006101000a81548160ff021916908315150217905550336001600083815260200190815260200160002060000160016101000a81548173ffffffffffffffffffffffffffffffffffffffff021916908373ffffffffffffffffffffffffffffffffffffffff16021790555060008083815260200190815260200160002060020160008154809291906001019190505550817ffff3c900d938d21d0990d786e819f29b8d05c1ef587b462b939609625b684b1660405160405180910390a25050565b60016020528060005260406000206000915090508060000160009054906101000a900460ff16908060000160019054906101000a900473ffffffffffffffffffffffffffffffffffffffff169050825600a165627a7a72305820b5119603d869d6a882e06da00988df5338e2e566f0859d53ba011d8d33ef22660029",
  "source": "// solium-disable linebreak-style\r\npragma solidity ^0.4.24;\r\n\r\ncontract Election {\r\n    struct Candidate {\r\n        uint id;\r\n        string name;\r\n        uint voteCount;\r\n    }\r\n\r\n    struct Voters {\r\n        bool voted;\r\n        address voterId;\r\n    }\r\n\r\n    // Map of candidates\r\n    mapping(uint => Candidate) public candidates;\r\n    // map of voters who have voted\r\n    mapping(uint => Voters) public voters;\r\n    // storing count of candidates\r\n    uint public candidatesCount;\r\n\r\n    event votedEvent(\r\n        uint indexed _candidateId\r\n    );\r\n\r\n    constructor() public {\r\n        addCandidate(\"Candidate 1\");\r\n        addCandidate(\"Candidate 2\");\r\n        addCandidate(\"Candidate 3\");\r\n    }\r\n\r\n    function addCandidate (string _name) private {\r\n        candidatesCount++;\r\n        candidates[candidatesCount] = Candidate(candidatesCount, _name, 0);\r\n    }\r\n\r\n    function vote (uint _candidateId, uint _aadhar) public {\r\n        // require that they haven't voted before\r\n        require(!voters[_aadhar].voted, \"Already Voted\");\r\n\r\n        // require a valid candidate\r\n        require(_candidateId > 0 && _candidateId <= candidatesCount, \"Invalid Candidate\");\r\n    \r\n        voters[_aadhar].voted = true;\r\n        voters[_aadhar].voterId = msg.sender;\r\n        \r\n        candidates[_candidateId].voteCount++;\r\n\r\n        emit votedEvent(_candidateId);\r\n    }\r\n}",
  "sourcePath": "D:\\personal-projects\\Ethereum\\ethereum-blockchain\\contracts\\Election.sol",
  "compiler": {
    "name": "solc",
    "version": "0.4.24+commit.e67f0147.Emscripten.clang"
  },
  "schemaVersion": "2.0.1",
  "updatedAt": "2018-09-27T06:12:43.857Z"
}